{
  "_format": "hh-sol-artifact-1",
  "contractName": "FileRegistry",
  "sourceName": "contracts/FileRegistry.sol",
  "abi": [
    {
      "anonymous": false,
      "inputs": [
        {
          "indexed": true,
          "internalType": "uint256",
          "name": "fileId",
          "type": "uint256"
        },
        {
          "indexed": true,
          "internalType": "address",
          "name": "grantee",
          "type": "address"
        },
        {
          "indexed": false,
          "internalType": "string",
          "name": "keyPointer",
          "type": "string"
        },
        {
          "indexed": false,
          "internalType": "uint256",
          "name": "timestamp",
          "type": "uint256"
        }
      ],
      "name": "AccessGranted",
      "type": "event"
    },
    {
      "anonymous": false,
      "inputs": [
        {
          "indexed": true,
          "internalType": "uint256",
          "name": "fileId",
          "type": "uint256"
        },
        {
          "indexed": true,
          "internalType": "address",
          "name": "grantee",
          "type": "address"
        },
        {
          "indexed": false,
          "internalType": "uint256",
          "name": "timestamp",
          "type": "uint256"
        }
      ],
      "name": "AccessRevoked",
      "type": "event"
    },
    {
      "anonymous": false,
      "inputs": [
        {
          "indexed": true,
          "internalType": "uint256",
          "name": "fileId",
          "type": "uint256"
        },
        {
          "indexed": true,
          "internalType": "address",
          "name": "owner",
          "type": "address"
        },
        {
          "indexed": false,
          "internalType": "string",
          "name": "cid",
          "type": "string"
        },
        {
          "indexed": false,
          "internalType": "bytes32",
          "name": "fileHash",
          "type": "bytes32"
        },
        {
          "indexed": false,
          "internalType": "uint256",
          "name": "timestamp",
          "type": "uint256"
        }
      ],
      "name": "FileRegistered",
      "type": "event"
    },
    {
      "anonymous": false,
      "inputs": [
        {
          "indexed": true,
          "internalType": "uint256",
          "name": "fileId",
          "type": "uint256"
        },
        {
          "indexed": false,
          "internalType": "uint256",
          "name": "version",
          "type": "uint256"
        },
        {
          "indexed": false,
          "internalType": "string",
          "name": "cid",
          "type": "string"
        },
        {
          "indexed": false,
          "internalType": "bytes32",
          "name": "fileHash",
          "type": "bytes32"
        },
        {
          "indexed": false,
          "internalType": "uint256",
          "name": "timestamp",
          "type": "uint256"
        }
      ],
      "name": "FileVersionAdded",
      "type": "event"
    },
    {
      "inputs": [
        {
          "internalType": "uint256",
          "name": "fileId",
          "type": "uint256"
        },
        {
          "internalType": "string",
          "name": "cid",
          "type": "string"
        },
        {
          "internalType": "bytes32",
          "name": "fileHash",
          "type": "bytes32"
        }
      ],
      "name": "addVersion",
      "outputs": [],
      "stateMutability": "nonpayable",
      "type": "function"
    },
    {
      "inputs": [
        {
          "internalType": "uint256",
          "name": "fileId",
          "type": "uint256"
        },
        {
          "internalType": "address",
          "name": "user",
          "type": "address"
        }
      ],
      "name": "checkAccess",
      "outputs": [
        {
          "internalType": "bool",
          "name": "",
          "type": "bool"
        }
      ],
      "stateMutability": "view",
      "type": "function"
    },
    {
      "inputs": [
        {
          "internalType": "uint256",
          "name": "",
          "type": "uint256"
        }
      ],
      "name": "files",
      "outputs": [
        {
          "internalType": "address",
          "name": "owner",
          "type": "address"
        },
        {
          "internalType": "string",
          "name": "cid",
          "type": "string"
        },
        {
          "internalType": "bytes32",
          "name": "fileHash",
          "type": "bytes32"
        },
        {
          "internalType": "uint256",
          "name": "createdAt",
          "type": "uint256"
        },
        {
          "internalType": "uint256",
          "name": "version",
          "type": "uint256"
        },
        {
          "internalType": "bool",
          "name": "exists",
          "type": "bool"
        }
      ],
      "stateMutability": "view",
      "type": "function"
    },
    {
      "inputs": [
        {
          "internalType": "uint256",
          "name": "fileId",
          "type": "uint256"
        }
      ],
      "name": "getFile",
      "outputs": [
        {
          "internalType": "address",
          "name": "owner",
          "type": "address"
        },
        {
          "internalType": "string",
          "name": "cid",
          "type": "string"
        },
        {
          "internalType": "bytes32",
          "name": "fileHash",
          "type": "bytes32"
        },
        {
          "internalType": "uint256",
          "name": "createdAt",
          "type": "uint256"
        },
        {
          "internalType": "uint256",
          "name": "version",
          "type": "uint256"
        },
        {
          "internalType": "bool",
          "name": "exists",
          "type": "bool"
        }
      ],
      "stateMutability": "view",
      "type": "function"
    },
    {
      "inputs": [
        {
          "internalType": "uint256",
          "name": "fileId",
          "type": "uint256"
        },
        {
          "internalType": "address",
          "name": "grantee",
          "type": "address"
        },
        {
          "internalType": "string",
          "name": "keyPointer",
          "type": "string"
        }
      ],
      "name": "grantAccessKeyPointer",
      "outputs": [],
      "stateMutability": "nonpayable",
      "type": "function"
    },
    {
      "inputs": [
        {
          "internalType": "uint256",
          "name": "",
          "type": "uint256"
        },
        {
          "internalType": "address",
          "name": "",
          "type": "address"
        }
      ],
      "name": "hasAccess",
      "outputs": [
        {
          "internalType": "bool",
          "name": "",
          "type": "bool"
        }
      ],
      "stateMutability": "view",
      "type": "function"
    },
    {
      "inputs": [
        {
          "internalType": "uint256",
          "name": "",
          "type": "uint256"
        },
        {
          "internalType": "address",
          "name": "",
          "type": "address"
        }
      ],
      "name": "keyPointers",
      "outputs": [
        {
          "internalType": "string",
          "name": "",
          "type": "string"
        }
      ],
      "stateMutability": "view",
      "type": "function"
    },
    {
      "inputs": [],
      "name": "nextFileId",
      "outputs": [
        {
          "internalType": "uint256",
          "name": "",
          "type": "uint256"
        }
      ],
      "stateMutability": "view",
      "type": "function"
    },
    {
      "inputs": [
        {
          "internalType": "string",
          "name": "cid",
          "type": "string"
        },
        {
          "internalType": "bytes32",
          "name": "fileHash",
          "type": "bytes32"
        }
      ],
      "name": "registerFile",
      "outputs": [
        {
          "internalType": "uint256",
          "name": "fileId",
          "type": "uint256"
        }
      ],
      "stateMutability": "nonpayable",
      "type": "function"
    },
    {
      "inputs": [
        {
          "internalType": "uint256",
          "name": "fileId",
          "type": "uint256"
        },
        {
          "internalType": "address",
          "name": "grantee",
          "type": "address"
        }
      ],
      "name": "revokeAccess",
      "outputs": [],
      "stateMutability": "nonpayable",
      "type": "function"
    }
  ],
  "bytecode": "0x60806040526001600055348015601457600080fd5b5061188b806100246000396000f3fe608060405234801561001057600080fd5b506004361061009e5760003560e01c8063ced1419811610066578063ced141981461015e578063d13c87031461018e578063d9a5ec1b146101be578063daba38d5146101da578063f4c714b41461020a5761009e565b806314b05c58146100a35780632bfda313146100bf5780637d7d1143146100f457806389b83a9b14610110578063ce27e5fa1461012e575b600080fd5b6100bd60048036038101906100b89190610e43565b61023f565b005b6100d960048036038101906100d49190610eb7565b610412565b6040516100eb96959493929190610fee565b60405180910390f35b61010e60048036038101906101099190611082565b61051f565b005b61011861074a565b60405161012591906110f6565b60405180910390f35b61014860048036038101906101439190611111565b610750565b60405161015591906110f6565b60405180910390f35b61017860048036038101906101739190611171565b610902565b60405161018591906111b1565b60405180910390f35b6101a860048036038101906101a39190611171565b610931565b6040516101b591906111b1565b60405180910390f35b6101d860048036038101906101d39190611171565b610a05565b005b6101f460048036038101906101ef9190611171565b610bca565b60405161020191906111cc565b60405180910390f35b610224600480360381019061021f9190610eb7565b610c77565b60405161023696959493929190610fee565b60405180910390f35b836001600082815260200190815260200160002060050160009054906101000a900460ff166102a3576040517f08c379a000000000000000000000000000000000000000000000000000000000815260040161029a9061123a565b60405180910390fd5b3373ffffffffffffffffffffffffffffffffffffffff166001600083815260200190815260200160002060000160009054906101000a900473ffffffffffffffffffffffffffffffffffffffff1673ffffffffffffffffffffffffffffffffffffffff1614610347576040517f08c379a000000000000000000000000000000000000000000000000000000000815260040161033e906112a6565b60405180910390fd5b6001806000878152602001908152602001600020600401600082825461036d91906112f5565b92505081905550838360016000888152602001908152602001600020600101918261039992919061156f565b50816001600087815260200190815260200160002060020181905550847f38ba9565ab432f821a946b7490858857f5dabf8a63f3cef500e3157d1c74cd3460016000888152602001908152602001600020600401548686864260405161040395949392919061167b565b60405180910390a25050505050565b6000606060008060008060006001600089815260200190815260200160002090508060000160009054906101000a900473ffffffffffffffffffffffffffffffffffffffff16816001018260020154836003015484600401548560050160009054906101000a900460ff1684805461048990611392565b80601f01602080910402602001604051908101604052809291908181526020018280546104b590611392565b80156105025780601f106104d757610100808354040283529160200191610502565b820191906000526020600020905b8154815290600101906020018083116104e557829003601f168201915b505050505094509650965096509650965096505091939550919395565b836001600082815260200190815260200160002060050160009054906101000a900460ff16610583576040517f08c379a000000000000000000000000000000000000000000000000000000000815260040161057a9061123a565b60405180910390fd5b3373ffffffffffffffffffffffffffffffffffffffff166001600083815260200190815260200160002060000160009054906101000a900473ffffffffffffffffffffffffffffffffffffffff1673ffffffffffffffffffffffffffffffffffffffff1614610627576040517f08c379a000000000000000000000000000000000000000000000000000000000815260040161061e906112a6565b60405180910390fd5b82826002600088815260200190815260200160002060008773ffffffffffffffffffffffffffffffffffffffff1673ffffffffffffffffffffffffffffffffffffffff168152602001908152602001600020918261068692919061156f565b5060016003600087815260200190815260200160002060008673ffffffffffffffffffffffffffffffffffffffff1673ffffffffffffffffffffffffffffffffffffffff16815260200190815260200160002060006101000a81548160ff0219169083151502179055508373ffffffffffffffffffffffffffffffffffffffff16857f669423de70823767a3864eebeb9dc566b37896633f597de1650336062ffe9a0e85854260405161073b939291906116c9565b60405180910390a35050505050565b60005481565b6000806000815480929190610764906116fb565b9190505590506040518060c001604052803373ffffffffffffffffffffffffffffffffffffffff16815260200185858080601f016020809104026020016040519081016040528093929190818152602001838380828437600081840152601f19601f82011690508083019250505050505050815260200183815260200142815260200160018152602001600115158152506001600083815260200190815260200160002060008201518160000160006101000a81548173ffffffffffffffffffffffffffffffffffffffff021916908373ffffffffffffffffffffffffffffffffffffffff16021790555060208201518160010190816108649190611743565b5060408201518160020155606082015181600301556080820151816004015560a08201518160050160006101000a81548160ff0219169083151502179055509050503373ffffffffffffffffffffffffffffffffffffffff16817f401c71b3ea7edbd67cc789c5ff29039bf33c75cb83f2f8e82a00895574d10f6f868686426040516108f39493929190611815565b60405180910390a39392505050565b60036020528160005260406000206020528060005260406000206000915091509054906101000a900460ff1681565b60006003600084815260200190815260200160002060008373ffffffffffffffffffffffffffffffffffffffff1673ffffffffffffffffffffffffffffffffffffffff16815260200190815260200160002060009054906101000a900460ff16806109fd57508173ffffffffffffffffffffffffffffffffffffffff166001600085815260200190815260200160002060000160009054906101000a900473ffffffffffffffffffffffffffffffffffffffff1673ffffffffffffffffffffffffffffffffffffffff16145b905092915050565b816001600082815260200190815260200160002060050160009054906101000a900460ff16610a69576040517f08c379a0000000000000000000000000000000000000000000000000000000008152600401610a609061123a565b60405180910390fd5b3373ffffffffffffffffffffffffffffffffffffffff166001600083815260200190815260200160002060000160009054906101000a900473ffffffffffffffffffffffffffffffffffffffff1673ffffffffffffffffffffffffffffffffffffffff1614610b0d576040517f08c379a0000000000000000000000000000000000000000000000000000000008152600401610b04906112a6565b60405180910390fd5b60006003600085815260200190815260200160002060008473ffffffffffffffffffffffffffffffffffffffff1673ffffffffffffffffffffffffffffffffffffffff16815260200190815260200160002060006101000a81548160ff0219169083151502179055508173ffffffffffffffffffffffffffffffffffffffff16837f0de8b5705f103f4c8b38502a68ff29288ee6251cb54c4b316a5d8b472a11764d42604051610bbd91906110f6565b60405180910390a3505050565b6002602052816000526040600020602052806000526040600020600091509150508054610bf690611392565b80601f0160208091040260200160405190810160405280929190818152602001828054610c2290611392565b8015610c6f5780601f10610c4457610100808354040283529160200191610c6f565b820191906000526020600020905b815481529060010190602001808311610c5257829003601f168201915b505050505081565b60016020528060005260406000206000915090508060000160009054906101000a900473ffffffffffffffffffffffffffffffffffffffff1690806001018054610cc090611392565b80601f0160208091040260200160405190810160405280929190818152602001828054610cec90611392565b8015610d395780601f10610d0e57610100808354040283529160200191610d39565b820191906000526020600020905b815481529060010190602001808311610d1c57829003601f168201915b5050505050908060020154908060030154908060040154908060050160009054906101000a900460ff16905086565b600080fd5b600080fd5b6000819050919050565b610d8581610d72565b8114610d9057600080fd5b50565b600081359050610da281610d7c565b92915050565b600080fd5b600080fd5b600080fd5b60008083601f840112610dcd57610dcc610da8565b5b8235905067ffffffffffffffff811115610dea57610de9610dad565b5b602083019150836001820283011115610e0657610e05610db2565b5b9250929050565b6000819050919050565b610e2081610e0d565b8114610e2b57600080fd5b50565b600081359050610e3d81610e17565b92915050565b60008060008060608587031215610e5d57610e5c610d68565b5b6000610e6b87828801610d93565b945050602085013567ffffffffffffffff811115610e8c57610e8b610d6d565b5b610e9887828801610db7565b93509350506040610eab87828801610e2e565b91505092959194509250565b600060208284031215610ecd57610ecc610d68565b5b6000610edb84828501610d93565b91505092915050565b600073ffffffffffffffffffffffffffffffffffffffff82169050919050565b6000610f0f82610ee4565b9050919050565b610f1f81610f04565b82525050565b600081519050919050565b600082825260208201905092915050565b60005b83811015610f5f578082015181840152602081019050610f44565b60008484015250505050565b6000601f19601f8301169050919050565b6000610f8782610f25565b610f918185610f30565b9350610fa1818560208601610f41565b610faa81610f6b565b840191505092915050565b610fbe81610e0d565b82525050565b610fcd81610d72565b82525050565b60008115159050919050565b610fe881610fd3565b82525050565b600060c0820190506110036000830189610f16565b81810360208301526110158188610f7c565b90506110246040830187610fb5565b6110316060830186610fc4565b61103e6080830185610fc4565b61104b60a0830184610fdf565b979650505050505050565b61105f81610f04565b811461106a57600080fd5b50565b60008135905061107c81611056565b92915050565b6000806000806060858703121561109c5761109b610d68565b5b60006110aa87828801610d93565b94505060206110bb8782880161106d565b935050604085013567ffffffffffffffff8111156110dc576110db610d6d565b5b6110e887828801610db7565b925092505092959194509250565b600060208201905061110b6000830184610fc4565b92915050565b60008060006040848603121561112a57611129610d68565b5b600084013567ffffffffffffffff81111561114857611147610d6d565b5b61115486828701610db7565b9350935050602061116786828701610e2e565b9150509250925092565b6000806040838503121561118857611187610d68565b5b600061119685828601610d93565b92505060206111a78582860161106d565b9150509250929050565b60006020820190506111c66000830184610fdf565b92915050565b600060208201905081810360008301526111e68184610f7c565b905092915050565b7f46696c6520646f6573206e6f7420657869737400000000000000000000000000600082015250565b6000611224601383610f30565b915061122f826111ee565b602082019050919050565b6000602082019050818103600083015261125381611217565b9050919050565b7f4e6f74206f776e65720000000000000000000000000000000000000000000000600082015250565b6000611290600983610f30565b915061129b8261125a565b602082019050919050565b600060208201905081810360008301526112bf81611283565b9050919050565b7f4e487b7100000000000000000000000000000000000000000000000000000000600052601160045260246000fd5b600061130082610d72565b915061130b83610d72565b9250828201905080821115611323576113226112c6565b5b92915050565b600082905092915050565b7f4e487b7100000000000000000000000000000000000000000000000000000000600052604160045260246000fd5b7f4e487b7100000000000000000000000000000000000000000000000000000000600052602260045260246000fd5b600060028204905060018216806113aa57607f821691505b6020821081036113bd576113bc611363565b5b50919050565b60008190508160005260206000209050919050565b60006020601f8301049050919050565b600082821b905092915050565b6000600883026114257fffffffffffffffffffffffffffffffffffffffffffffffffffffffffffffffff826113e8565b61142f86836113e8565b95508019841693508086168417925050509392505050565b6000819050919050565b600061146c61146761146284610d72565b611447565b610d72565b9050919050565b6000819050919050565b61148683611451565b61149a61149282611473565b8484546113f5565b825550505050565b600090565b6114af6114a2565b6114ba81848461147d565b505050565b5b818110156114de576114d36000826114a7565b6001810190506114c0565b5050565b601f821115611523576114f4816113c3565b6114fd846113d8565b8101602085101561150c578190505b611520611518856113d8565b8301826114bf565b50505b505050565b600082821c905092915050565b600061154660001984600802611528565b1980831691505092915050565b600061155f8383611535565b9150826002028217905092915050565b6115798383611329565b67ffffffffffffffff81111561159257611591611334565b5b61159c8254611392565b6115a78282856114e2565b6000601f8311600181146115d657600084156115c4578287013590505b6115ce8582611553565b865550611636565b601f1984166115e4866113c3565b60005b8281101561160c578489013582556001820191506020850194506020810190506115e7565b868310156116295784890135611625601f891682611535565b8355505b6001600288020188555050505b50505050505050565b82818337600083830152505050565b600061165a8385610f30565b935061166783858461163f565b61167083610f6b565b840190509392505050565b60006080820190506116906000830188610fc4565b81810360208301526116a381868861164e565b90506116b26040830185610fb5565b6116bf6060830184610fc4565b9695505050505050565b600060408201905081810360008301526116e481858761164e565b90506116f36020830184610fc4565b949350505050565b600061170682610d72565b91507fffffffffffffffffffffffffffffffffffffffffffffffffffffffffffffffff8203611738576117376112c6565b5b600182019050919050565b61174c82610f25565b67ffffffffffffffff81111561176557611764611334565b5b61176f8254611392565b61177a8282856114e2565b600060209050601f8311600181146117ad576000841561179b578287015190505b6117a58582611553565b86555061180d565b601f1984166117bb866113c3565b60005b828110156117e3578489015182556001820191506020850194506020810190506117be565b8683101561180057848901516117fc601f891682611535565b8355505b6001600288020188555050505b505050505050565b6000606082019050818103600083015261183081868861164e565b905061183f6020830185610fb5565b61184c6040830184610fc4565b9594505050505056fea2646970667358221220dbcb0419450ec749458f05aa5d2084a30018aff449af318d921dbf7ce066084e64736f6c634300081c0033",
  "linkReferences": {},
  "deployedLinkReferences": {}
}